{
  "contractName": "CertificateValidation",
  "abi": [
    {
      "anonymous": false,
      "inputs": [
        {
          "indexed": false,
          "internalType": "bytes32",
          "name": "hash",
          "type": "bytes32"
        }
      ],
      "name": "CertificateAdded",
      "type": "event"
    },
    {
      "inputs": [
        {
          "internalType": "bytes32",
          "name": "hash",
          "type": "bytes32"
        }
      ],
      "name": "addCertificate",
      "outputs": [],
      "stateMutability": "payable",
      "type": "function",
      "payable": true
    },
    {
      "inputs": [
        {
          "internalType": "bytes32",
          "name": "hash",
          "type": "bytes32"
        }
      ],
      "name": "verifyCertificate",
      "outputs": [
        {
          "internalType": "bool",
          "name": "",
          "type": "bool"
        }
      ],
      "stateMutability": "view",
      "type": "function",
      "constant": true
    }
  ],
  "bytecode": "0x608060405234801561001057600080fd5b50610593806100206000396000f3fe6080604052600436106100295760003560e01c8063750f9f871461002e578063850c17681461004a575b600080fd5b61004860048036038101906100439190610311565b610087565b005b34801561005657600080fd5b50610071600480360381019061006c9190610311565b610274565b60405161007e9190610359565b60405180910390f35b6001600082815260200190815260200160002060003373ffffffffffffffffffffffffffffffffffffffff1673ffffffffffffffffffffffffffffffffffffffff16815260200190815260200160002060009054906101000a900460ff1615610125576040517f08c379a000000000000000000000000000000000000000000000000000000000815260040161011c906103f7565b60405180910390fd5b60005b6000805490508110156101a857816000828154811061014a57610149610417565b5b906000526020600020015403610195576040517f08c379a000000000000000000000000000000000000000000000000000000000815260040161018c90610492565b60405180910390fd5b80806101a0906104eb565b915050610128565b50600180600083815260200190815260200160002060003373ffffffffffffffffffffffffffffffffffffffff1673ffffffffffffffffffffffffffffffffffffffff16815260200190815260200160002060006101000a81548160ff02191690831515021790555060008190806001815401808255809150506001900390600052602060002001600090919091909150557f17bb7cfdc69e5f19d4aa0509b6efed06df2c55008e56a1aa33322eb96855cf9a816040516102699190610542565b60405180910390a150565b600080600090505b6000805490508110156102cb57826000828154811061029e5761029d610417565b5b9060005260206000200154036102b85760019150506102d1565b80806102c3906104eb565b91505061027c565b50600090505b919050565b600080fd5b6000819050919050565b6102ee816102db565b81146102f957600080fd5b50565b60008135905061030b816102e5565b92915050565b600060208284031215610327576103266102d6565b5b6000610335848285016102fc565b91505092915050565b60008115159050919050565b6103538161033e565b82525050565b600060208201905061036e600083018461034a565b92915050565b600082825260208201905092915050565b7f4365727469666963617465206861736820616c7265616479207375626d69747460008201527f6564200000000000000000000000000000000000000000000000000000000000602082015250565b60006103e1602383610374565b91506103ec82610385565b604082019050919050565b60006020820190508181036000830152610410816103d4565b9050919050565b7f4e487b7100000000000000000000000000000000000000000000000000000000600052603260045260246000fd5b7f4365727469666963617465206861736820616c72656164792065786973747300600082015250565b600061047c601f83610374565b915061048782610446565b602082019050919050565b600060208201905081810360008301526104ab8161046f565b9050919050565b7f4e487b7100000000000000000000000000000000000000000000000000000000600052601160045260246000fd5b6000819050919050565b60006104f6826104e1565b91507fffffffffffffffffffffffffffffffffffffffffffffffffffffffffffffffff8203610528576105276104b2565b5b600182019050919050565b61053c816102db565b82525050565b60006020820190506105576000830184610533565b9291505056fea2646970667358221220a6b507b8c51cc8c37bcdf1f94b1d192b43147e1f1d0891d6c367287b45f8cd3164736f6c63430008130033",
  "immutableReferences": {},
  "source": "// SPDX-License-Identifier: MIT\r\npragma solidity ^0.8.0;\r\n\r\n/**\r\n * @title CertificateValidation\r\n * @dev A smart contract for validating certificates using SHA256 hashes.\r\n * @custom:dev-run-script deploy\r\n */\r\ncontract CertificateValidation {\r\n    event CertificateAdded(bytes32 hash);\r\n    bytes32[] certificates;\r\n    mapping (bytes32 => mapping(address => bool)) private certificateHashes;\r\n\r\n    function addCertificate(bytes32 hash) public payable {\r\n   if (certificateHashes[hash][msg.sender]) {\r\n        revert(\"Certificate hash already submitted \");\r\n    }\r\n    for (uint i = 0; i < certificates.length; i++) {\r\n        if (certificates[i] == hash) {\r\n            revert(\"Certificate hash already exists\");\r\n        }\r\n    }\r\n        certificateHashes[hash][msg.sender] = true;\r\n        certificates.push(hash);\r\n        emit CertificateAdded(hash);\r\n    }\r\n   \r\n    function verifyCertificate(bytes32 hash) public view returns (bool) {\r\n        for (uint i = 0; i < certificates.length; i++) {\r\n            if (certificates[i] == hash) {\r\n                return true;\r\n            }\r\n        }\r\n        return false;\r\n    }\r\n}\r\n",
  "sourcePath": "C:\\Projects\\College Project\\contracts\\CertificateValidation.sol",
  "compiler": {
    "name": "solc",
    "version": "0.8.19+commit.7dd6d404.Emscripten.clang"
  },
  "schemaVersion": "3.4.13",
  "updatedAt": "2023-05-07T13:50:44.509Z",
  "networkType": "ethereum",
  "devdoc": {
    "custom:dev-run-script": "deploy",
    "details": "A smart contract for validating certificates using SHA256 hashes.",
    "kind": "dev",
    "methods": {},
    "title": "CertificateValidation",
    "version": 1
  },
  "userdoc": {
    "kind": "user",
    "methods": {},
    "version": 1
  }
}